{
  "contractName": "Contact",
  "abi": [
    {
      "inputs": [
        {
          "name": "_fName",
          "type": "string"
        },
        {
          "name": "_lName",
          "type": "string"
        },
        {
          "name": "_number",
          "type": "string"
        }
      ],
      "payable": false,
      "stateMutability": "nonpayable",
      "type": "constructor"
    },
    {
      "constant": true,
      "inputs": [],
      "name": "getFName",
      "outputs": [
        {
          "name": "",
          "type": "string"
        }
      ],
      "payable": false,
      "stateMutability": "view",
      "type": "function"
    },
    {
      "constant": true,
      "inputs": [],
      "name": "getLName",
      "outputs": [
        {
          "name": "",
          "type": "string"
        }
      ],
      "payable": false,
      "stateMutability": "view",
      "type": "function"
    },
    {
      "constant": true,
      "inputs": [],
      "name": "getNumber",
      "outputs": [
        {
          "name": "",
          "type": "string"
        }
      ],
      "payable": false,
      "stateMutability": "view",
      "type": "function"
    }
  ],
  "bytecode": "0x608060405234801561001057600080fd5b50604051610566380380610566833981018060405281019080805182019291906020018051820192919060200180518201929190505050826000908051906020019061005d929190610094565b508160019080519060200190610074929190610094565b50806002908051906020019061008b929190610094565b50505050610139565b828054600181600116156101000203166002900490600052602060002090601f016020900481019282601f106100d557805160ff1916838001178555610103565b82800160010185558215610103579182015b828111156101025782518255916020019190600101906100e7565b5b5090506101109190610114565b5090565b61013691905b8082111561013257600081600090555060010161011a565b5090565b90565b61041e806101486000396000f300608060405260043610610057576000357c0100000000000000000000000000000000000000000000000000000000900463ffffffff16806382adb5161461005c57806387202d96146100ec578063f2c9ecd81461017c575b600080fd5b34801561006857600080fd5b5061007161020c565b6040518080602001828103825283818151815260200191508051906020019080838360005b838110156100b1578082015181840152602081019050610096565b50505050905090810190601f1680156100de5780820380516001836020036101000a031916815260200191505b509250505060405180910390f35b3480156100f857600080fd5b506101016102ae565b6040518080602001828103825283818151815260200191508051906020019080838360005b83811015610141578082015181840152602081019050610126565b50505050905090810190601f16801561016e5780820380516001836020036101000a031916815260200191505b509250505060405180910390f35b34801561018857600080fd5b50610191610350565b6040518080602001828103825283818151815260200191508051906020019080838360005b838110156101d15780820151818401526020810190506101b6565b50505050905090810190601f1680156101fe5780820380516001836020036101000a031916815260200191505b509250505060405180910390f35b606060008054600181600116156101000203166002900480601f0160208091040260200160405190810160405280929190818152602001828054600181600116156101000203166002900480156102a45780601f10610279576101008083540402835291602001916102a4565b820191906000526020600020905b81548152906001019060200180831161028757829003601f168201915b5050505050905090565b606060018054600181600116156101000203166002900480601f0160208091040260200160405190810160405280929190818152602001828054600181600116156101000203166002900480156103465780601f1061031b57610100808354040283529160200191610346565b820191906000526020600020905b81548152906001019060200180831161032957829003601f168201915b5050505050905090565b606060028054600181600116156101000203166002900480601f0160208091040260200160405190810160405280929190818152602001828054600181600116156101000203166002900480156103e85780601f106103bd576101008083540402835291602001916103e8565b820191906000526020600020905b8154815290600101906020018083116103cb57829003601f168201915b50505050509050905600a165627a7a7230582014cd1ae543c78e6cf1f9de4241d91ca9d534e8466c8f296f09b13008805ea9630029",
  "source": "pragma solidity ^0.4.23;\n\ncontract PhoneBook {\n\n    string name;\n    Contact[] contacts;\n\n    constructor(string _name) public {\n        name = _name;\n    }\n\n    function addContact(string fName, string lName, string number) public {\n        Contact c = new Contact(fName, lName, number);\n        contacts.push(c);\n    }\n\n    function getContacts() public view returns(Contact[]) {\n        return contacts;\n    }\n\n    function getName() public view returns(string) {\n        return name;\n    }\n}\n\ncontract Contact {\n    string fName;\n    string lName;\n    string number;\n\n    constructor(string _fName, string _lName, string _number) public {\n        fName = _fName;\n        lName = _lName;\n        number = _number;\n    }\n\n    function getFName () public view returns(string) {\n        return fName;\n    }\n    function getLName () public view returns(string) {\n        return lName;\n    }\n    function getNumber () public view returns(string) {\n        return number;\n    }\n\n}",
  "sourcePath": "/Users/vihejuyl/Documents/testis6/contracts/PhoneBook.sol",
  "compiler": {
    "name": "solc",
    "version": "0.4.24+commit.e67f0147.Emscripten.clang"
  },
  "schemaVersion": "2.0.0",
  "updatedAt": "2018-07-23T11:08:32.440Z"
}